:020000040800F2
:10000000880B002089010008252D0008532B0008CB
:10001000212D00085104000869300008000000008C
:100020000000000000000000000000005D2F00083C
:10003000A505000800000000292D0008C92F0008B0
:10004000A3010008A3010008A3010008A301000800
:10005000A3010008A3010008A3010008A3010008F0
:10006000A3010008A3010008A30100085905000826
:10007000A301000869050008A3010008A301000806
:10008000A3010008A3010008D5020008A30100088D
:100090005930000855040008A3010008A301000816
:1000A000A3010008A3010008A3010008A3010008A0
:1000B000A3010008A3010008A3010008A301000890
:1000C000A3010008A3010008A3010008A301000880
:1000D000A3010008A3010008A3010008A301000870
:1000E000A3010008A3010008A301000800F002F822
:1000F00000F03AF80AA090E8000C82448344AAF188
:100100000107DA4501D100F02FF8AFF2090EBAE885
:100110000F0013F0010F18BFFB1A43F0010318473B
:100120001041000030410000103A24BF78C878C167
:10013000FAD8520724BF30C830C144BF04680C60ED
:10014000704700000023002400250026103A28BF35
:1001500078C1FBD8520728BF30C148BF0B60704739
:100160001FB51FBD10B510BD00F07AF81146FFF79E
:10017000F7FF03F097FA00F098F803B4FFF7F2FFE7
:1001800003BC00F09FF80000094880470948004779
:10019000FEE7FEE7FEE7FEE7FEE7FEE7FEE7FEE737
:1001A000FEE7FEE704480549054A064B7047000094
:1001B00055300008ED00000888050020880B00205D
:1001C00088070020880700204FF000020429C0F0B3
:1001D000128010F0030C00F01B80CCF1040CBCF179
:1001E000020F18BF00F8012BA8BF20F8022BA1EBCB
:1001F0000C0100F00DB85FEAC17C24BF00F8012BB0
:1002000000F8012B48BF00F8012B70474FF00002A7
:1002100000B5134694469646203922BFA0E80C50FC
:10022000A0E80C50B1F12001BFF4F7AF090728BFD7
:10023000A0E80C5048BF0CC05DF804EB890028BF53
:1002400040F8042B08BF704748BF20F8022B11F07C
:10025000804F18BF00F8012B7047704770477047F8
:10026000754600F02BF8AE4605006946534620F06F
:100270000700854618B020B5FFF794FFBDE8204081
:100280004FF000064FF000074FF000084FF0000B52
:1002900021F00701AC46ACE8C009ACE8C009ACE805
:1002A000C009ACE8C0098D46704710B50446AFF3ED
:1002B00000802046BDE81040FFF75FBF0048704750
:1002C0002405002001491820ABBEFEE726000200ED
:1002D0007047000010B5024800F0ABFA10BD0000F6
:1002E0009002002070B5044600252068806800F068
:1002F000010018B32068806820F001002168886040
:1003000001F09AFC054613E001F096FC401B022820
:100310000ED92068806800F0010048B1A06A40F062
:100320001000A062E06A40F00100E062012070BDB0
:100330002068806800F001000028E5D10020F6E781
:1003400070B505466C6AA06A00F05000E0B9A06A7A
:1003500040F40070A0622068806800F46020B0F56E
:10036000602F0DD1207B58B9A06A20F48070A06264
:10037000A06A00F4805018B9A06A40F00100A062A1
:10038000204600F053FA03E0206A016B28468847B4
:1003900070BD70B505466C6AA06A40F04000A0626E
:1003A000E06A40F00400E062204600F041FA70BDCF
:1003B00070B50446656A284600F039FA70BD000041
:1003C00038B504460025002000902068806800F0C1
:1003D000010078BB2068806840F0010021688860D7
:1003E000194800681949B0FBF1F0009002E000984C
:1003F000401E009000980028F9D101F01DFC054630
:1004000019E001F019FC401B022814D9206880680B
:1004100000F0010078B9A06A40F01000A062E06A24
:1004200040F00100E06200BF002084F8240000BF1B
:10043000012038BD05E02068806800F00100002838
:10044000DFD00020F5E700003800002040420F0018
:1004500000BFFEE710B5024800F068FE10BD0000C6
:100460000403002010B58AB0044628216846FFF72F
:10047000CDFE0020059006900120079042F26040DA
:100480000090002001904FF6E07002900020039051
:100490000490012008900E2009906946204600F043
:1004A000F5FC10B101200AB010BD4FF4927006495E
:1004B000086000204860C86088600820086100204B
:1004C000087500BFEFE700000C0500200D49087813
:1004D000012803D101210C4A11707047052805D06D
:1004E000062803D0072801D0082802D10749087040
:1004F00002E00621054A11700121054A117000BF72
:10050000EBE700009F0000209E0000209D000020DF
:100510009C00002070B505460C460648002101608D
:1005200041600470044B02460449284600F009FC6F
:1005300070BD0000A7000020B00000200C050020C6
:1005400000B50448007820B100200249087002F08C
:1005500007FD00BD9E00002010B5024801F078F8AC
:1005600010BD0000C002002010B5024801F070F874
:1005700010BD00008403002030B590F840500124E5
:10058000AC40C56B6C60046863604468102C04D197
:100590000468A2600468E16003E00468A160046884
:1005A000E26030BD704700BFFEE70000F8B50446CA
:1005B00000260020009000BF94F82400012801D1FB
:1005C0000220F8BD012084F8240000BF2046FFF778
:1005D00089FE06462046FFF7F3FE0646002E69D147
:1005E000A06A20F4885040F00200A062022001F0CE
:1005F000FBFB34490968B1FBF0F04000009002E0D9
:100600000098401E009000980028F9D1206880686A
:1006100040F008002168886001F00EFB054616E0F6
:1006200001F00AFB401B0A2811D92068806800F0FD
:10063000080060B1A06A20F0020040F01000A06243
:1006400000BF002084F8240000BF0120B9E7206823
:10065000806800F008000028E2D12068806840F03F
:1006600004002168886001F0E7FA054616E001F011
:10067000E3FA401B0A2811D92068806800F00400C2
:1006800060B1A06A20F0020040F01000A06200BF3C
:10069000002084F8240000BF012092E720688068D1
:1006A00000F004000028E2D1A06A20F0020040F02F
:1006B0000100A06200BF002084F8240000BF304683
:1006C0007FE70000380000207047000038B5024680
:1006D00000230020009000BF92F82400012801D1DF
:1006E000022038BD012082F8240000BF4868072896
:1006F00012D21068406B0C79641E04EB84051F2431
:10070000AC40A0430D796D1E05EB85050C68AC402F
:1007100020431468606327E048680D2812D21068EF
:10072000006B0C79E41F04EB84051F24AC40A0434C
:100730000D79ED1F05EB85050C68AC40204314686E
:10074000206311E01068C06A0C790D3C04EB84054D
:100750001F24AC40A0430D790D3D05EB85050C68C9
:10076000AC4020431468E06208680A2812D310687D
:10077000C0680C780A3C04EB44050724AC40A04355
:100780000D780A3D05EB45058C68AC4020431468A4
:10079000E0600FE0106800690C7804EB4405072462
:1007A000AC40A0430D7805EB45058C68AC40204378
:1007B000146820610868102802D00868112827D121
:1007C000174C1068A0421ED11068806800F4000029
:1007D000F0B91068806840F400001468A0600868F0
:1007E000102815D10F4800680F4CB0FBF4F000EB57
:1007F00080004000009002E00098401E00900098A9
:100800000028F9D104E0906A40F0200090620123B2
:1008100000BF002082F8240000BF184661E70000F6
:10082000002401403800002040420F00704770470C
:10083000704770B50446206805682068466806F071
:10084000200020282DD105F00200022829D1A06A1D
:1008500000F0100018B9A06A40F40070A06220688F
:10086000806800F46020B0F5602F13D1207B88B938
:100870002068406820F0200021684860A06A20F4C9
:100880008070A062A06A00F4805018B9A06A40F09D
:100890000100A0622046FFF7C9FF6FF01200216837
:1008A000086006F08000802839D105F00400042893
:1008B00035D1A06A00F0100018B9A06A40F40050C9
:1008C000A0622068806800F4E040B0F5E04F0DD0F1
:1008D0002068406800F48060D0B92068806800F427
:1008E0006020B0F5602F13D1207B88B92068406864
:1008F00020F0800021684860A06A20F48050A06247
:10090000A06A00F4807018B9A06A40F00100A062EB
:100910002046FFF7D9FE6FF00C002168086006F052
:10092000400040280DD105F0010050B1A06A40F40C
:100930008030A062204600F0A7F86FF00100216827
:10094000086070BD2DE9F04104460027002500260F
:10095000A84614B90120BDE8F081A06810B1207D3F
:1009600000B100BFA06A30B90020E06284F8240022
:10097000204600F08BF82046FFF7B4FC0746A06A3B
:1009800000F01000002873D1002F71D1A06A20F46C
:10099000885040F00200A062E16960680843217B52
:1009A00040EA41000643A068B0F5807F02D0A0680D
:1009B000012802D14FF4807000E000200543207D23
:1009C000012811D1207B38B9A069401E4FF4006185
:1009D00041EA4030054307E0A06A40F02000A062F1
:1009E000E06A40F00100E0622068406820F469405D
:1009F00028432168486020688068214908403043C6
:100A000021688860A068B0F5807F02D0A0680128C6
:100A100002D14FF4807000E00020B0F5807F03D158
:100A2000208A401E4FEA00582068C06A20F47000F7
:100A300040EA08002168C8622068806811490840BF
:100A4000B04208D10020E062A06A20F0020040F02D
:100A50000100A06211E0A06A20F0020040F0100046
:100A6000A062E06A40F00100E062012705E0FFE7D4
:100A7000A06A40F01000A062012738466BE7000032
:100A8000FDF7E1FFFE0E1FFF7047000010B586B0B6
:100A90000446002002900390049005903849206895
:100AA00088426BD100BF3748806940F400703549F7
:100AB00088610846806900F40070019000BF00BFA3
:100AC00000BF0846806940F00400886108468069DC
:100AD00000F00400019000BF00BF00BF084680691D
:100AE00040F0080088610846806900F00800019025
:100AF00000BF00BFA82002900320039002A9224853
:100B000000F00AFF022002900320039002A91F4870
:100B100000F002FF1E481F490860002048600021C5
:100B20001C4881608021C1604900016189004161E8
:100B300020218161C901C16100F058FE08B1FFF7B1
:100B400032FD00BF13482062446200BF00221146FC
:100B5000122001F0F7F8122001F0E4F80D480068C7
:100B6000006840F002000B49096808600948006805
:100B7000006820F0040007490968086006B010BD4D
:100B8000002401400010024000080140000C014018
:100B900008000240C00200202DE9F04104460D4645
:100BA0001646002757492068884203D056492068D6
:100BB000884205D15348001D006800F4702000E011
:100BC000002000287ED100BF94F82400012802D123
:100BD0000220BDE8F081012084F8240000BF2046F7
:100BE000FFF7EEFB0746002F6DD1A06A40F60161CA
:100BF000884340F48070A06243492068884209D14C
:100C00004048001D006800F4702008B9012002E08F
:100C1000002000E0012078B1A06A20F48010A062DA
:100C20002068406800F4806000B3A06A20F400509F
:100C300040F48050A06219E0A06A40F48010A062E5
:100C400030492068884203D02F492068884205D166
:100C50002C48001D006800F4806000E0002028B1EE
:100C6000A06A20F4005040F48050A062A06A00F412
:100C7000805020B1E06A20F00600E06201E0002030
:100C8000E06200BF002084F8240000BF1F48216AF2
:100C900088621F48216AC8621E48216A08636FF093
:100CA0000200216808602068806840F48070216834
:100CB0008860226802F14C0133462A46206A00F01F
:100CC000C9FD01E01AE014E02068806800F46020AB
:100CD000B0F5602F06D12068806840F4A00021683C
:100CE00088600CE02068806840F48010216888608B
:100CF00005E000BF002084F8240000E0012738460A
:100D000067E700000024014000280140410300087B
:100D1000B10300089303000810B5024692F8203092
:100D2000012B01D0022B06D11068406908431468DA
:100D30006061002010BD506A40F4802050620120A4
:100D4000F8E7F0B504460D461E4694F8207020687A
:100D50008368A86800B900E000BF012F01D0022F0E
:100D60007DD103F0806030B903F0006018B903F062
:100D7000805000287ED0C3F301610120884030609C
:100D8000A86860B9B5F800C0E86840EA4C5C206823
:100D900000F5C07000EB0110C0F800C00FE0D5E90D
:100DA00001C040EACC00D5F80CC040EA0C00D4F8F1
:100DB00000C00CF5C07C0CEB011CCCF80000D5F891
:100DC00010C0206800F5C07000EB0110C0F804C02E
:100DD000287D01280ED1206800F5C07000EB0110BD
:100DE000406840F4807C206800F5C07000EB011082
:100DF000C0F804C0D079000692F806C040EA0C4062
:100E000092F805C040EA0C2092F804C040EA0C00B9
:100E1000D4F800C00CF5C07C0CEB011CCCF80C0025
:100E2000D078000692F802C040EA0C4092F801C067
:100E300040EA0C2092F800C040EA0C00D4F800C050
:100E40000CF5C07C0CEB011CCCF80800206800F508
:100E5000C07000EB0110006840F0010C01E00FE0F1
:100E600008E0206800F5C07000EB0110C0F800C079
:100E70000020F0BD606A40F4001060620120F8E7D5
:100E8000606A40F4802060620120F2E7F0B5044619
:100E90000A46216894F82050012D01D0022D74D10A
:100EA000D1F8000240F00100C1F80002107D00F00E
:100EB0001F06012000FA06F3D1F81C029843C1F87E
:100EC0001C02D069C8B9D1F80C029843C1F80C02D1
:100ED000908880B2968940EA064601F510705769FD
:100EE00040F83760108880B2168940EA064601F55E
:100EF0001070576900EBC7004660D069012819D10E
:100F0000D1F80C021843C1F80C02908880B2168800
:100F100040EA064601F51070576940F8376090893D
:100F200080B2168940EA064601F51070576900EB59
:100F3000C7004660906928B9D1F804029843C1F807
:100F4000040204E0D1F804021843C1F80402106955
:100F500028B9D1F814029843C1F8140204E0D1F87A
:100F600014021843C1F81402106A012804D1D1F800
:100F70001C021843C1F81C02D1F8000220F0010045
:100F8000C1F800020020F0BDFFE7606A40F4802055
:100F900060620120F7E7704770B5044694F820506E
:100FA000012D01D0022D7DD151B92068C06800F01B
:100FB000030080B9606A40F400106062012070BDD7
:100FC0002068006900F0030028B9606A40F400104E
:100FD00060620120F3E7206800F5D87000EB011093
:100FE000006800F004009060906840B9206800F547
:100FF000D87000EB01100068400D106007E0206819
:1010000000F5D87000EB01100068C008506020683F
:1010100000F5D87000EB0110006800F00200D0600D
:10102000206800F5D87000EB0110406800F00F0058
:10103000082802D30820106108E0206800F5D87065
:1010400000EB0110406800F00F001061206800F50F
:10105000D87000EB0110406800F47F40000A9061F6
:10106000206800F5D87000EB01104068000C50615A
:10107000206800F5D87000EB0110806818702068B7
:1010800000F5D87000EB0110806800F47F40000A82
:101090005870206800F5D87000EB0110806800F4EB
:1010A0007F0000E03CE0000C9870206800F5D870EC
:1010B00000EB01108068000ED870206800F5D87031
:1010C00000EB0110C0681871206800F5D87000EBC3
:1010D0000110C06800F47F40000A5871206800F5D4
:1010E000D87000EB0110C06800F47F00000C98710C
:1010F000206800F5D87000EB0110C068000ED871B0
:1011000031B92068C06840F020002668F06005E032
:101110002068006940F020002668306100204EE71A
:10112000606A40F480206062012048E72DE9F05FAA
:1011300004460025206846692068D0F8049020689D
:1011400087682068D0F80CA02068D0F810B020681C
:10115000D0F8188006F00100002855D007F00100F3
:10116000C0B101202168886007F0020018B1204654
:1011700000F067FA0EE007F0040010B145F40065D6
:1011800008E007F0080010B145F4805502E0204661
:1011900000F056FA07F48070C8B14FF480702168EF
:1011A000886007F4007018B1204600F04CFA0EE099
:1011B00007F4806010B145F4005508E007F40060C2
:1011C00010B145F4804502E0204600F03BFA07F4F8
:1011D0008030C8B14FF480302168886007F4003057
:1011E00018B1204600F031FA0EE007F4802010B16B
:1011F00045F4004508E007F4002010B145F48035BF
:1012000002E0204600F020FA06F0080038B10AF0AB
:10121000100020B145F4007510202168C86006F068
:10122000040040B10AF0080028B108202168C86015
:10123000204600F0B1F906F0020038B12068C0681D
:1012400000F0030010B1204600F0A8F906F04000BD
:1012500038B10BF0100020B145F4806510202168F2
:10126000086106F0200040B10BF0080028B108200A
:1012700021680861204600F0B1F906F0100038B18D
:101280002068006900F0030010B1204600F0A7F9C3
:1012900006F4003040B109F0100028B11020216898
:1012A0004860204600F09CF906F4803040B109F017
:1012B000080028B1082021684860204600F0C6F9DF
:1012C00006F4004088B309F0040078B306F4807097
:1012D00020B108F0010008B145F0010506F40070E6
:1012E00020B108F0020008B145F0020506F4806064
:1012F00020B108F0040008B145F0040506F40060D0
:10130000A0B108F0700088B108F07000402817D034
:1013100006DC10280BD020280CD0302819D10CE086
:10132000502810D0602814D110E01DE019E045F0DD
:1013300008050FE045F010050CE045F0200509E038
:1013400045F0400506E045F0800503E045F4807572
:1013500000E000BF00BF2068806920F070002168B5
:1013600088610420216848602DB1606A284360626A
:101370002046FFF710FEBDE8F09F70B504460CB99B
:10138000012070BD94F8200010B9204600F0B0F89C
:101390002068006840F001002168086000F04CFC03
:1013A00005460DE000F048FC401B0A2808D9606A99
:1013B00040F400306062052084F820000120E0E75E
:1013C0002068406800F001000028EBD02068006829
:1013D00020F002002168086000F02EFC05460DE0B8
:1013E00000F02AFC401B0A2808D9606A40F400304B
:1013F0006062052084F820000120C2E72068406870
:1014000000F002000028EBD1207E012806D12068E0
:10141000006840F080002168086005E020680068EE
:1014200020F0800021680860607E012806D12068D5
:10143000006840F040002168086005E0206800680E
:1014400020F0400021680860A07E012806D12068B5
:10145000006840F020002168086005E0206800680E
:1014600020F0200021680860E07E012806D1206875
:10147000006820F010002168086005E0206800681E
:1014800040F0100021680860207F012806D1206804
:10149000006840F008002168086005E020680068E6
:1014A00020F0080021680860607F012806D12068CC
:1014B000006840F004002168086005E020680068CA
:1014C00020F0040021680860D4E902010843216982
:1014D0000843616908436168491E08432168C8617F
:1014E00000206062012084F82000002049E700000D
:1014F00010B586B004460020029003900490059039
:101500002249206888423ED100BF2148C06940F08E
:1015100000701F49C8610846C06900F00070019062
:1015200000BF00BF00BF0846806940F0040088612A
:101530000846806900F00400019000BF00BFC81495
:10154000029000200390049002A9124800F0E4F9F0
:101550004FF480500290022003900320059002A9CE
:101560000C4800F0D9F900221146142000F0EAFBE3
:10157000142000F0D7FB00221146152000F0E2FBFA
:10158000152000F0CFFB06B010BD00000064004045
:1015900000100240000801407047000010B50446EA
:1015A0000B492068884211D10A4B0B4A0021204682
:1015B000FFF7F2FC50B90848006840F22311884256
:1015C00004D10548806808B9FEF780FF10BD00000F
:1015D000006400409F000020F00400207047704726
:1015E000704770B5044694F82000012822D10220EB
:1015F00084F820002068006820F00100216808605D
:1016000000F01AFB05460DE000F016FB401B0A280F
:1016100008D9606A40F400306062052084F8200038
:10162000012070BD2068406800F001000028EBD167
:101630006062F6E7606A40F4002060620120F0E733
:101640007047704770477047704770477047000099
:1016500070B50446E06B05682068066894F8401091
:10166000042088402840002846D006F004000028C6
:1016700042D02068006800F0200028B92068006887
:1016800020F004002168086057492068884201D191
:10169000042027E0544914312068884201D14020B9
:1016A00020E0514928312068884201D1001519E015
:1016B0004D493C312068884202D14FF4804011E00E
:1016C000494950312068884202D14FF4802009E016
:1016D000454964312068884202D14FF4800001E01E
:1016E0004FF08060404908394860E06A00287AD0AD
:1016F0002046E16A884776E094F84010022088404E
:101700002840A0B306F0020088B32068006800F00B
:10171000200040B92068006820F00A0021680860B5
:10172000012084F8210030492068884201D102203C
:1017300028E02D4914312068884201D1202021E081
:10174000294928312068884201D140151AE02649EC
:101750003C312068884202D14FF4005012E0224907
:1017600050312068884203D14FF400300AE017E07E
:101770001D4964312068884202D14FF4001001E015
:101780004FF0007018490839486000BF002084F805
:10179000200000BFA06A30B32046A16A884722E03B
:1017A00094F84010082088402840E0B106F0080076
:1017B000C8B12068006820F00E002168086094F825
:1017C000401001208840E16B48600120A06384F84C
:1017D000210000BF002084F8200000BF206B10B162
:1017E0002046216B884770BD080002400146002258
:1017F00009B901207047164B0868C01A1423B0FBC2
:10180000F3F08000086412480838C863022081F8A9
:1018100021000868026843F6F0708243D1E90103B1
:101820001843CB6818430B6918434B6918438B69FD
:101830001843CB691843024308680260002088639C
:10184000012081F82100002081F8200000BFD1E7AD
:10185000080002402DE9F04104460D4616461F4699
:101860004FF0000800BF94F82000012802D10220A8
:10187000BDE8F081012084F8200000BF94F8210029
:1018800001282CD1022084F821000020A0632068C8
:10189000006820F00100216808603B463246294676
:1018A0002046FEF769FEE06A30B12068006840F02B
:1018B0000E00216808600BE02068006820F004003A
:1018C000216808602068006840F00A00216808600C
:1018D0002068006840F001002168086006E000BF51
:1018E000002084F8200000BF4FF002084046BFE708
:1018F00070B5044600F0A0F906462546681C10B1F4
:1019000004480078054400BF00F096F9801BA84207
:10191000FAD370BD340000202DE9F84703460022B9
:1019200094466EE14FF0010808FA02F4D1F8008005
:1019300008EA0400A0427DD1DFF8DCA2D1F80480DF
:10194000A8EB0A09D0453AD014DCB8F1030F50D007
:1019500009DCB8F1000F31D0B8F1010F1CD0B8F19B
:10196000020F49D120E0B8F1110F18D0B8F1120FD1
:1019700042D11EE0B9F5881F25D006DCB9F5803FBD
:1019800020D0B9F5801F37D11AE0B9F5001F18D063
:10199000B9F5041F30D117E0D1F80CC02DE0D1F813
:1019A0000C8008F1040C28E0D1F80C8008F1080C38
:1019B00023E0D1F80C8008F10C0C1EE000BF00BF42
:1019C00000BF00BF00BF00BFD1F80880B8F1000F12
:1019D00002D14FF0040C0BE0D1F80880B8F1010FF0
:1019E00003D14FF0080C1C6102E04FF0080C5C6161
:1019F00003E04FF0000C00E000BF00BFFF2801D85B
:101A0000984601E003F104084646FF2802D84FEA51
:101A1000820803E0A2F108084FEA88084746D6F892
:101A200000804FF00F0909FA07F928EA09080CFAB3
:101A300007F900E088E048EA0908C6F80080D1F814
:101A4000048008F08058B8F1805F7DD100BFDFF8D6
:101A5000CC81D8F8188048F00108DFF8C091C9F8A7
:101A60001880C846D8F8188008F00108CDF8008022
:101A700000BF00BF4FEAB9384FEA920958F8295021
:101A80004FEA82784FEA18794FF00F0808FA09F800
:101A900025EA0805DFF88881434502D14FF00008A8
:101AA00016E0DFF88081434502D14FF001080FE0D6
:101AB000DFF87481434502D14FF0020808E0DFF8F7
:101AC0006C81434502D14FF0030801E04FF0040858
:101AD0004FEA82794FEA197908FA09F848EA0505C8
:101AE000DFF84C814FEA920948F82950D1F8048078
:101AF00008F48018B8F5801F0AD1DFF83881D8F8CB
:101B0000008048EA0008DFF82C91C9F8008009E05D
:101B1000DFF82081D8F8008028EA0008DFF8149167
:101B2000C9F80080D1F8048008F40018B8F5001F47
:101B300010D1DFF8008108F10408D8F8008048EAE5
:101B40000008DFF8F09000E05AE009F10409C9F854
:101B500000800DE0DFF8DC8008F10408D8F8008090
:101B600028EA0008DFF8CC9009F10409C9F80080E0
:101B7000D1F8048008F40038B8F5003F0ED1DFF842
:101B8000B480A8F10408D8F8008048EA0008DFF81B
:101B9000A490A9F10409C9F800800DE0DFF8948051
:101BA000A8F10408D8F8008028EA0008DFF884903B
:101BB000A9F10409C9F80080D1F8048008F480383C
:101BC000B8F5803F0ED1DFF86C80A8F10808D8F88E
:101BD000008048EA0008DFF85C90A9F10809C9F81C
:101BE00000800DE0DFF84C80A8F10808D8F80080EC
:101BF00028EA0008DFF83C90A9F10809C9F800803C
:101C0000521CD1F8008028FA02F8B8F1000F7FF4D6
:101C100089AEBDE8F88700000000111000100240F6
:101C200000080140000C0140001001400014014078
:101C300008000140080401400148006870470000A6
:101C40002C00002003480068034909780844014932
:101C5000086070472C0000203400002010B50848B0
:101C6000006840F0100006490860032000F0A8F862
:101C70000F2000F007F800F02BF8002010BD000046
:101C80000020024070B504460E4800784FF47A7187
:101C9000B1FBF0F00C490968B1FBF0F5284600F003
:101CA0003EFF08B1012070BD102C07D20022214652
:101CB000501E00F047F80548046001E00120F2E7FB
:101CC0000020F0E734000020380000203000002021
:101CD00008B500BF1148806940F001000F498861D4
:101CE0000846806900F00100009000BF00BF00BFFF
:101CF0000846C06940F08050C8610846C06900F0DD
:101D00008050009000BF00BF00BF0549486820F028
:101D1000E06040F00070486000BF08BD0010024065
:101D20000000014001460846002809DB00F01F03BF
:101D300001229A4043099B0003F1E023C3F80021EC
:101D400000BF70472DE9F05F80460D46164600271C
:101D500001F08CF9074639462A46334601F0070060
:101D6000C0F1070ABAF1040F02D94FF0040A01E0EA
:101D7000C0F1070AD14600F1040ABAF1070F02D2F6
:101D80004FF0000A01E0A0F1030AD4464FF0010A27
:101D90000AFA09FAAAF1010A0AEA020A0AFA0CFA8C
:101DA0004FF0010B0BFA0CFBABF1010B0BEA030B31
:101DB0004AEA0B042146404601F060F9BDE8F09F75
:101DC00000BF00F00702064B19684FF6FF031940E9
:101DD000044B0B4343EA0221014B196000BF7047DB
:101DE0000CED00E00000FA052DE9F04706464FF043
:101DF0000008002500270024A146012E31D0022E24
:101E000056D0102E5FD132484468006800F08070D0
:101E100008B33048C4F38341475C04F4803078B1A0
:101E20002B484068C0F340402B4911F8008004F46F
:101E3000803040B12948B0FBF8F000FB07F502E024
:101E4000274807FB00F52248406800F48000B0F501
:101E5000800F01D1A94603E068000321B0FBF1F92E
:101E600032E01B48046A04F44070B0F5807F05D16D
:101E700004F0020010B14FF4004918E004F440707F
:101E8000B0F5007F07D11248406A00F0020010B19F
:101E900049F640490BE004F44070B0F5407F06D1AC
:101EA0000B48006800F4003008B1DFF838900BE010
:101EB00000F07EF906494968C1F38131491C4900A7
:101EC000B0FBF1F900E000BF00BF4846BDE8F08775
:101ED0000010024004420008144200080024F400EC
:101EE00000093D0048E80100F8B504460026002539
:101EF000207800F0010000286BD000274348C0691B
:101F000000F0805070B900BF4048C06940F0805078
:101F10003E49C8610846C06900F08050009000BF8B
:101F200000BF01273A48006800F48070B0B9384813
:101F3000006840F4807036490860FFF77DFE064671
:101F400006E0FFF779FE801B642801D90320F8BD65
:101F50002F48006800F480700028F2D02B48006AF7
:101F600000F440752DB3A08800F44070A84220D042
:101F70002648006A20F440750120264908600020A8
:101F800008602248056205F0010090B1FFF754FE99
:101F9000064608E0FFF750FE801B41F28831884278
:101FA00001D90320D3E71948006A00F00200002895
:101FB000F0D01648006A20F4407061680843134965
:101FC0000862012F04D10846C06920F08050C86122
:101FD00000BF207800F00200022807D10B484068BB
:101FE00020F44040A168084308494860207800F088
:101FF0001000102807D10548406820F48000E168EF
:102000000843024948600020A1E700000010024098
:10201000007000404004424270B504460D460CB9C1
:10202000012070BD5A48006800F00700A8420ED297
:102030005748006820F007002843554908600846C3
:10204000006800F00700A84201D00120E9E72078ED
:1020500000F0020002281DD1207800F004000428BE
:1020600005D14C48406840F4E0604A494860207817
:1020700000F00800082805D14648406840F4605048
:10208000444948604348406820F0F000A168084394
:1020900040494860207800F0010078B3606801286A
:1020A00006D13C48006800F4003090B90120B8E740
:1020B0006068022806D13748006800F0007040B917
:1020C0000120AEE73348006800F0020008B90120A3
:1020D000A7E73048406820F00300616808432D49B5
:1020E0004860FFF7A9FD064609E0FFF7A5FD801B44
:1020F00041F28831884202D9032092E707E025485F
:10210000406800F00C006168B0EB810FEDD1204811
:10211000006800F00700A8420ED91D48006820F0B2
:10212000070028431A4908600846006800F00700C5
:10213000A84201D0012074E7207800F004000428B0
:1021400007D11448406820F4E060E1680843114971
:102150004860207800F00800082808D10D48406841
:1021600020F46050216940EAC1000A49486000F04B
:102170002FF808494968C1F30311074A515CC84068
:102180000649086006480068FFF77CFD002048E724
:1021900000200240001002401642000838000020D3
:1021A000300000200148006870470000380000201F
:1021B00000B5FFF7F7FF04494968C1F3C221034A9C
:1021C000515CC84000BD00000010024026420008DB
:1021D00070B500210022002400230020134D6968FF
:1021E00001F00C05F5B1042D02D0082D19D101E044
:1021F0000F4819E00F4DC1F38346AB5D01F4803504
:1022000055B10A4D6D68C5F340450B4E725D084DE2
:102210005D43B5FBF2F402E0084D03FB05F42046F4
:1022200002E000BF064800BF00BF70BD00100240C2
:102230000024F400F24100080242000800093D00B9
:1022400000127A00F8B504460CB90120F8BD2078D8
:1022500000F00100002878D0F848406800F00C0039
:1022600004280CD0F548406800F00C00082811D173
:10227000F248406800F48030B0F5803F0AD1EF4862
:10228000006800F4003000285FD0606800285CD14E
:102290000120DBE700BF6068B0F5803F06D1E7486A
:1022A000006840F48030E549086028E0606858B96B
:1022B000E248006820F48030E04908600846006881
:1022C00020F4802008601AE06068B0F5A02F0BD1E0
:1022D000DA48006840F48020D84908600846006861
:1022E00040F4803008600AE0D448006820F4803070
:1022F000D24908600846006820F48020086000BFCA
:10230000606888B1FFF798FC054606E0FFF794FC8B
:10231000401B642801D9032098E7C848006800F4EE
:1023200000300028F2D010E0FFF786FC054606E0FA
:10233000FFF782FC401B642801D9032086E7BF48D1
:10234000006800F400300028F2D1207800F002008C
:10235000022857D1B948406800F00C0050B1B74886
:10236000406800F00C00082818D1B448406800F418
:10237000803098B9B148006800F0020020B12069AF
:10238000012801D0012061E7AC48006820F0F80086
:10239000616940EAC100A949086033E02069E8B1F9
:1023A0000120A7490860FFF747FC054606E0FFF754
:1023B00043FC401B022801D9032047E79F480068DF
:1023C00000F002000028F2D09C48006820F0F800DD
:1023D000616940EAC1009949086013E0002098490A
:1023E0000860FFF729FC054606E0FFF725FC401BC7
:1023F000022801D9032029E79048006800F0020074
:102400000028F2D1207800F0080008282DD1A0691A
:10241000B8B101208B490860FFF70EFC054606E0C5
:10242000FFF70AFC401B022801D903200EE783486E
:10243000406A00F002000028F2D0012000F092FC77
:1024400013E000207F490860FFF7F6FB054606E031
:10245000FFF7F2FB401B022801D90320F6E677487C
:10246000406A00F002000028F2D1207800F0040059
:10247000042873D100277148C06900F0805070B9FA
:1024800000BF6E48C06940F080506C49C861084682
:10249000C06900F08050009000BF00BF01276A486B
:1024A000006800F48070B0B96748006840F480703C
:1024B00065490860FFF7C0FB054606E0FFF7BCFB77
:1024C000401B642801D90320C0E65F48006800F47F
:1024D00080700028F2D000BFE068012806D157487C
:1024E000006A40F001005549086227E0E06858B9E9
:1024F0005248006A20F00100504908620846006A0C
:1025000020F00400086219E0E06805280BD14B4870
:10251000006A40F00400494908620846006A40F039
:10252000010008620AE04548006A20F001004349C2
:1025300008620846006A20F00400086200BFE068F4
:10254000A0B1FFF779FB054609E0FFF775FB401BDB
:1025500041F28831884202D9032077E622E03748E9
:10256000006A00F002000028EFD012E0FFF764FBE1
:10257000054608E0FFF760FB401B41F288318842C6
:1025800001D9032062E62D48006A00F0020000280D
:10259000F0D1012F05D12948C06920F0805027498A
:1025A000C86100BFE069C8B32448406800F00C006F
:1025B000082860D0E069022848D100202049086638
:1025C000FFF73AFB054606E0FFF736FB401B022803
:1025D00001D903203AE61948006800F0007000288D
:1025E000F2D1206AB0F5803F07D11448406820F44A
:1025F0000030A168084311494860D4E90801084344
:102600000E49496821F4741108430C4948600120BF
:102610000B490866FFF710FB054607E03DE0FFF7B2
:102620000BFB401B022801D903200FE6034800687A
:1026300000F000700028F2D02FE0000000100240EF
:1026400000004242800442420070004000201449D1
:102650000866FFF7F1FA054606E0FFF7EDFA401BC2
:10266000022801D90320F1E50E48006800F000704F
:102670000028F2D111E0E069012800D1E6E509481F
:10268000466806F48031206A814204D106F4701154
:10269000606A814201D00120D8E50020D6E5000023
:1026A00000004242001002407047014691F851007C
:1026B000704710B504460CB9012010BD606A38B9E6
:1026C0006068B0F5827F00D105E00021E16102E0A1
:1026D0000021216161610021A16294F8510028B9B3
:1026E000002084F85000204600F042F8022084F8D0
:1026F00051002068006820F0400021680860A08830
:1027000000F48270218901F404410843A18901F495
:1027100000610843217C01F002010843217D01F0A2
:1027200001010843218B01F400710843217F01F06E
:10273000380108432021095D01F080010843218D03
:1027400001F400510843216808600421A06901EAEE
:102750001040216848602068C06920F4006021684A
:10276000C86100206065012084F851000020A4E7C2
:1027700010B586B0044600200290039004900590A6
:102780002B492068884251D100BF2A48806940F413
:102790008050284988610846806900F48050019083
:1027A00000BF00BF00BF0846806940F00800886194
:1027B0000846806900F00800019000BF00BF282093
:1027C0000290022003900320059002A91A48FFF707
:1027D000A3F81020029000200390049002A916484C
:1027E000FFF79AF800BF1549486840F0E06040F0F4
:1027F0000100486000BF124812490860102048607C
:102800000021104881608021C16000210161416187
:1028100081614FF48051C161FEF7E8FF08B1FDF717
:10282000C2FE00BF0748A064446200BF06B010BDEE
:102830000030014000100240000C01400000014047
:1028400030000240840300202DE9F84304460F467F
:1028500016461D46FFF7F0F98046B14694F8510040
:10286000012802D00220BDE8F88307B10EB901208B
:10287000F9E700BF94F85000012801D10220F2E7E7
:10288000012084F8500000BF032084F8510000208C
:1028900060652763A686E686A063A087E0876064FC
:1028A0002064A068B0F5004F0BD12068006820F0CC
:1028B0004000216808602068006840F4804021687A
:1028C00008602068006800F04000402805D02068BB
:1028D000006840F0400021680860E068B0F5006FD3
:1028E00037D1606810B1B9F1010F09D1206B0088B0
:1028F0002168C860206B801C2063E08E401EE0864B
:1029000023E02068806800F0020002280AD1206BD2
:1029100000882168C860206B801C2063E08E401E08
:10292000E08612E0FFF788F9A0EB0800A84201D387
:10293000681C00B94DB9012084F8510000BF002087
:1029400084F8500000BF03208DE7E08E0028D8D126
:1029500036E0606810B1B9F1010F09D1206B007841
:1029600021680873206B401C2063E08E401EE086C7
:1029700023E02068806800F0020002280AD1206B62
:10298000007821680873206B401C2063E08E401E95
:10299000E08612E0FFF750F9A0EB0800A84201D34F
:1029A000681C00B94DB9012084F8510000BF002017
:1029B00084F8500000BF032055E7E08E0028D8D1EE
:1029C00042462946204600F03BFA08B120206065C7
:1029D000A06850B900BF002000902068C068009037
:1029E00020688068009000BF00BF012084F851007B
:1029F00000BF002084F8500000BF606D08B10120C6
:102A000031E700202FE700002DE9F04104460E4693
:102A1000154694F85100012802D00220BDE8F0814B
:102A200006B10DB90120F9E700BF94F85000012864
:102A300001D10220F2E7012084F8500000BF0320FA
:102A400084F85100002060652663A586E586A063B2
:102A500060642064A087E087A068B0F5004F0BD1C8
:102A60002068006820F04000216808602068006845
:102A700040F48040216808601F48A16CC8621F486C
:102A8000A16C88621E48A16C08630020A16C486399
:102A9000E38E276807F10C02216BA06CFEF7DAFECB
:102AA00050B1606D40F01000606500BF002084F8F8
:102AB000500000BF0120B1E72068006800F040002E
:102AC000402805D02068006840F040002168086078
:102AD00000BF002084F8500000BF2068406840F02C
:102AE0002000216848602068406840F002002168AA
:102AF0004860002092E70000B52D0008C32D0008B3
:102B00008D2D000810B5044603480068A04202D18C
:102B1000014801F05DF810BDBC000020704770B5A1
:102B200004462546681EB0F1807F01D301200FE0E6
:102B3000681E4FF0E02148610F214FF0FF3000F098
:102B40009DFA00204FF0E0218861072008610020F5
:102B500070BD00BFFEE700000EB5002000900190A0
:102B60000290234823490860811522488160012191
:102B70000173002101754FF46021C16100201D49DE
:102B8000486004211B480161FDF7DCFE08B1FDF738
:102B90000AFD032000900120019006200290694662
:102BA0001448FDF793FD08B1FDF7FDFC05200090EA
:102BB0000220019069460F48FDF788FD08B1FDF736
:102BC000F2FC072000900320019069460948FDF7B8
:102BD0007DFD08B1FDF7E7FC09200090042001907D
:102BE00069460448FDF772FD08B1FDF7DCFC0EBD37
:102BF000002401409002002010B50F480F490860E2
:102C00000920486000210D4881604FF08071C1604B
:102C10000912016100214161017601214176002103
:102C200081760121C176002101774177FEF7A5FB6E
:102C300008B1FDF7B8FC10BD00640040040300209B
:102C400008B500BF0E48406940F001000C494861DA
:102C50000846406900F00100009000BF00BF00225C
:102C600011460B20FFF76EF80B20FFF75BF80022F0
:102C700011460D20FFF766F80D20FFF753F808BD49
:102C80000010024008B500BF1348806940F02000E2
:102C9000114988610846806900F02000009000BF5B
:102CA00000BF00BF0846806940F004008861084604
:102CB000806900F00400009000BF00BF00BF08461C
:102CC000806940F0080088610846806900F00800CB
:102CD000009000BF00BF08BD0010024010B50E48B4
:102CE0000E4908604FF48270486000210B488160F3
:102CF000C160016141614FF4007181611821C161BE
:102D000000210162416281620A21C162FFF7D1FCA8
:102D100008B1FDF748FC10BD003001402C03002035
:102D200000BFFEE700BFFEE7704770B5054616E03E
:102D300000F0B8F9044604B912E0012C02D0022CCC
:102D40000AD104E004212846FDF7E4FB05E009214F
:102D50002846FDF7DFFB00E000BF00BF00BFE7E74C
:102D600000BF70BD08B508490968C9084FF47A72F8
:102D7000B1FBF2F14143009100BF00BF00994A1E30
:102D800000920029F9D108BD3800002070B5054631
:102D90006C6A2068406820F0030021684860606D1C
:102DA00040F010006065012084F851002046FFF7D4
:102DB0007BFC70BD70B50446656A2846FFF7AEFE21
:102DC00070BDF8B505466C6AFEF736FF0646286802
:102DD000006800F0200020282DD02068406820F0F6
:102DE0002000216848602068406820F002002168C7
:102DF000486032466421204600F022F818B1606D28
:102E000040F020006065A06850B900BF002000902D
:102E10002068C068009020688068009000BF00BFF4
:102E20000020E086012084F85100606D18B1204632
:102E3000FFF73AFCF8BD2046FFF764FE00BFF9E754
:102E4000F8B504460E4615463346012202212046B7
:102E5000009500F017F828B1606D40F02000606523
:102E60000320F8BD3346002280212046009500F063
:102E700009F828B1606D40F0200060650320F0E79C
:102E80000020EEE72DE9F84F04460D4690461E4619
:102E9000DDF82890FEF7D0FEA0EB0900371AFEF708
:102EA000CBFE82462C480068C0F3CB3078430090BC
:102EB00045E0701C002842D0FEF7BEFEA0EB0A00E1
:102EC000B84200D2A7BB2068406820F0E00021682B
:102ED00048606068B0F5827F0DD1A068B0F5004F02
:102EE00003D0A068B0F5806F05D12068006820F09D
:102EF000400021680860A06AB0F5005F0DD100BFF6
:102F00002068006820F4005021680860206800688C
:102F100040F400502168086000BF012084F851008F
:102F200000BF002084F8500000BF0320BDE8F88FE8
:102F3000FFE7009800B900270098401E0090206825
:102F400080682840A84201D1012000E000204045CF
:102F5000AFD10020EAE700003800002070470000F1
:102F600072B600BF00BF00BFBFF34F8F00BF00BFEE
:102F700000BF00BF00BF00BFBFF36F8F00BF00BF27
:102F800000BF00BF00BF00BF00BF00BFBFF34F8F37
:102F900000BF00BF00BF0A48006800F4E0600949B4
:102FA0000843001D0649086000BF00BF00BFBFF313
:102FB0004F8F00BF00BF00BF00BF00BFFDE7000094
:102FC0000CED00E00000FA0510B5FEF73BFE10BD69
:102FD00000B593B0282109A8FDF718F9142104A819
:102FE000FDF714F900200090019002900390012059
:102FF000099000040A9040000B9001200D900220DF
:103000001090C10311914FF4E011129109A8FFF73C
:1030100019F908B1FDF7C7FA0F20049002200590B6
:10302000002006904FF48060079000200890022155
:1030300004A8FEF7F1FF08B1FDF7B5FA02200090F1
:10304000800302906846FEF74FFF08B1FDF7ABFA28
:1030500013B000BD7047000010B50248FEF766F8D7
:1030600010BD00000403002000BFFEE70248006816
:10307000C0F30220704700000CED00E010B50028FE
:1030800004DB0A07130E054A135406E00A07140E60
:10309000034A00F00F031B1FD45410BD00E400E0EE
:1030A00018ED00E010B500F075FA10BD2DE9F047FD
:1030B00005460DB9BDE8F08700241AE00F4830F846
:1030C00014600F4830F81470B74201DDB81B00E0FF
:1030D000F01B1FFA80F8404600F050F9814609487D
:1030E00050F82410484600F011FF45F82400601CF9
:1030F000C4B2042CE2D300BFDCE70000D8030020F8
:10310000000000204400002010B516480021016096
:103110004160154801604160018100201349087039
:10312000134908701349087013490860134908606F
:103130001349086013490870134800210160416079
:103140008160C16011480160416081601048008E5B
:103150000A2802DA0A200E4908860D49088E00F076
:10316000E3F910BD78000020D80300208E00002075
:103170008D0000208C0000208800002084000020AA
:103180008000002040000020C8030020E40400204C
:10319000440000202DE9FF478146B9F1000F01D11D
:1031A000BDE8FF87484600F0DFFB6748007A00B9BA
:1031B000F6E7FEF741FD04466846FFF777FF4FF05C
:1031C0000008002709E05DF82700414600F06AFF8B
:1031D00001D25DF82780781CC7B2042FF3D35B4877
:1031E0000078D8B95A49404600F05CFE10D25948E0
:1031F000006808B95748046056480068201A052836
:1032000009D301205149087000205249086002E0AA
:1032100000205049086000F011F9C1E7684600F04D
:1032200009FA05462DB9684600F020FA08B10120D8
:1032300000E0002006460DB9002E7DD046480078FB
:1032400048B9012044490870444804604448057066
:103250004448067075E042480078854203D14148F1
:103260000078864205D03D4804603D4805703D48E1
:10327000067045B339480068201A3B49496A8842BC
:1032800021D33A484068201A3749C96A88421AD37C
:10329000022036490870084644602146022000F0AA
:1032A00097F933480068401C31490860314800688C
:1032B000401C30490860484600F028FB00202349A4
:1032C00008702549087046B324480068201A26492A
:1032D000096A884221D325484068201A2249896A10
:1032E00088421AD3012021490870084644602146CB
:1032F000012000F06DF91E480068401C1C49086060
:103300001D480068401C1C490860484600F0FEFA51
:1033100000200E490870104908700F48007880B1ED
:103320000E480068201A28280BD300200A4908708C
:103330000649087005E0FFE700200749087000F023
:103340007DF800BF2CE70000D80300209700002084
:10335000CDCCCC3D980000209400002090000020AF
:1033600095000020960000204400002078000020F6
:1033700080000020880000208400002070B50446F2
:10338000204600F07BFD0646044900F0BFFD0546DF
:103390004FF08B4100F090FC70BD00003333534080
:1033A0002DE9F843054600260027B046052D06D036
:1033B000062D08D0072D0BD0082D12D10CE00026C9
:1033C0000027B04611E0FF2600274FF000080CE070
:1033D0000026FF27B04608E0002600274FF0FF0830
:1033E00003E00026FF27B84600BF00BF0F48067065
:1033F0000F4807700F4880F80080002409E03B4622
:10340000324621460C48CDF8008000F0BDFB601C20
:1034100084B209488088A042F1DC074800F010FA25
:103420003221054800F03AFBBDE8F883B8000020DF
:10343000B9000020BA000020BC0000202DE9FF47A1
:103440003248007A08B9BDE8FF87FEF7F5FB05466C
:103450002F484168681A502800D2F4E76846FFF701
:1034600025FE0126002409E05DF82400294900F02A
:1034700019FE01D2002603E0601CC4B2042CF3D371
:1034800000BF06B9DFE72448007880B9002409E0CE
:103490001E4931F8140000F0F1FC204941F82400E5
:1034A000601CC4B2042CF3D301201B4908701C4FCC
:1034B000002427E01B4931F8140000F0DFFC8146AE
:1034C000164850F82410484600F01EFE8246144963
:1034D00000F01CFD8046114850F82410404600F0D2
:1034E0007DFB0E4941F8240051F824004FF07C5137
:1034F00000F074FB804600F0A1FC044921F81400A0
:10350000601CC4B2042CD5D300BF9CE7D8030020B4
:10351000780000200AD7A33C40000020C803002008
:103520006F12033B000000207FB50446002000908E
:103530000190029003901420FEF7DAF9002512E0C2
:10354000002009E05DF82010104A32F810201144E4
:103550004DF82010411CC8B20428F3D30120FEF717
:10356000C7F9681C85B2A542EADB002008E05DF8D7
:103570002010B1FBF4F1064A22F81010411CC8B229
:103580000428F4D30120024908727FBD0000002006
:10359000D80300200B48007808B9002070470A487B
:1035A0000A4A127810F8321008480078401C00F0DF
:1035B0001F00064A107003480078401E014A107030
:1035C0000846EBE78E000020E40300208D00002079
:1035D00000B97047134A1278202A0BD3124A127886
:1035E000521C02F01F02104B1A700E4A1278521E23
:1035F0000C4B1A700D4A0E4B1B7802F833000C4B23
:103600001B7802EBC3025160094A1278521C02F087
:103610001F02074B1A70034A1278521C014B1A7092
:1036200000BFD6E78E0000208D000020E4030020BC
:103630008C00002070B50546002600240AE00A4AE6
:1036400055F82400916900F02DFD01D8701CC6B218
:10365000601CC4B2042CF2D30348007FB04201DCEA
:10366000012070BD0020FCE74400002070B5054635
:10367000002411E00A4A55F82400116900F012FDF7
:1036800008D8074A55F82400516900F00BFC01D80E
:10369000012070BD601CC4B2042CEBD30020F8E7FD
:1036A00044000020FEF7DAFAFFF792FCFFF7EAFA8F
:1036B000FFF7C6FAFFF750FAFFF79EFAFFF70EFB87
:1036C0000C224449444800F0A3F94448FCF76EFF3B
:1036D000042243494148FDF75FFAFFF715FD4148D1
:1036E000FCF7C0FE3F48FDF77CFF08B1FCF75BFF2D
:1036F00002213C48FDF710FB08B1FCF754FF67E0DE
:10370000FCF71EFF3848007801280CD137480078B4
:1037100000F0B4FB3649086034480078FFF740FEFB
:103720000020314908703348FFF7C0FC3148006879
:10373000314908602F484068304908602D4880684A
:103740002F4908602B48C0682E4908602449088822
:1037500000F094FB05462C4900F0D8FB04464FF0DE
:103760008B4100F0A9FA294908601D49488800F0FA
:1037700085FB0546244900F0C9FB04464FF08B4108
:1037800000F09AFA224908601549888800F076FB13
:1037900005461D4900F0BAFB04464FF08B4100F08E
:1037A0008BFA1C4908600E49C88800F067FB054683
:1037B000154900F0ABFB04464FF08B4100F07CFA5A
:1037C000154908600448FFF7E5FC0648FFF7ADFA25
:1037D00096E700002C030020BC000020900200208F
:1037E00000000020040300209C0000209D00002019
:1037F0002800002080020020140000200C0000207F
:103800001000002008000020333353402400002023
:103810001C0000202000002018000020064A12682A
:10382000064BB2FBF3F202FB00F100E000BF0A1E00
:10383000A1F10101FAD170473800002040420F0089
:10384000F8B5044604B9F8BDA08800EB4000782123
:1038500001EBC00085B2294604F12A00FCF7B4FC54
:103860000026002032E000EB4002A11D11444978FF
:103870008DF8001000EB4002A11D895C8DF801104D
:1038800000EB4002A11D114489788DF8021000213F
:1038900018E0072212E01DF80130012797403B4055
:1038A00013B14FF0E00C01E04FF0800C3346761C72
:1038B00004F12A0707F803C0531E5AB2002AEADAB5
:1038C0004A1CD1B20329E4DB411C88B2A1888142A1
:1038D000C9DC00BFB7E770B50C4600B970BD002168
:1038E0000EE001EB4106851DAC5501EB4106354468
:1038F0006A7001EB4106851D3544AB704D1CA9B2C1
:1039000085888D42EDDC00BFE8E7000010B5044675
:1039100004B910BD0F4800780F4908720F480078AD
:1039200048720F48007888720846007828B90D4818
:103930000078C87200200B49087001200649087001
:10394000002048708870FEF777F90349486000BF8F
:10395000DFE70000B8000020E4040020B9000020E8
:10396000BA0000203C00002070B5054605B970BDC6
:103970002548007800B9FAE7FEF75EF904462248C8
:103980004068201A00D5F2E71F48407878B9002334
:103990001A461946284600F0DDF8284600F00BF9D3
:1039A00001201949487004F1280048602AE01648AF
:1039B000837A427A017A284600F0CCF8284600F053
:1039C000FAF811488078401C0F49887008468078C2
:1039D000022811D30846837A427A017A284600F0F9
:1039E000B9F8284600F0E7F80748C07A0749087098
:1039F00000200549087005E000200349487004F1E3
:103A00002800486000BFB2E7E40400203C0000202A
:103A10002DE9F04104460E46154604B10EB9BDE845
:103A2000F0810DB10C2D00DDF9E74FF4E271204675
:103A3000FCF7ECFB2660A5800A20FDF759FF204625
:103A400000F018F8FF23002211462046FFF743FF3D
:103A500000270BE02046FFF7F3FE3221204600F05E
:103A60001DF84FF49670FFF7D9FE7F1C042FF1DB91
:103A700000BFD4E710B50446782104F12A00FCF712
:103A8000A3FB3223782204F12A012068FEF7DCFE32
:103A90004FF49670FFF7C2FE10BD00002DE9F04113
:103AA00004460E462A48007810B10220BDE8F08195
:103AB0000CB1206808B90120F8E7FEF7BDF805460B
:103AC00006E0FEF7B9F8401BB04201D90320EDE74C
:103AD0002068FEF7EAFD0128F3D1002084F8C20136
:103AE000A08800EB4000782101EBC0001FFA80F8AD
:103AF000424604F12A012068FEF786FF07460FB10F
:103B00003846D3E7FEF798F8054606E0FEF794F846
:103B1000401BB04201D90320C8E794F8C201002835
:103B2000F4D0FEF789F8054606E0FEF785F8401B5D
:103B3000B04201D90320B9E720680068806800F02E
:103B400080008028F1D0C820FFF768FE0020ADE794
:103B50003C0000202DE9F84304460E4617469846DF
:103B60000CB9BDE8F883002509E03B4632462946FA
:103B70002046CDF8008000F007F8681C85B2A088C8
:103B8000A842F2DC00BFECE770B5049C00B970BD40
:103B900085888D4200DCFAE701EB4106851DAA55B8
:103BA00001EB410635446B7001EB4106851D354440
:103BB000AC7000BFEBE710B5044604B910BD204659
:103BC000FFF73EFE32212046FFF768FF00BFF5E712
:103BD00010B1012180F8C2117047000090EA010F76
:103BE00048BF81F0004100F19682421A3CBF801A22
:103BF00089184FEAD0524FF07F4C1CEA410FA2EBDC
:103C0000D15318BF9CEA026F00F03B804FF0004C8C
:103C10004CEA00204CEA012121FA03FC10EB0C0CC9
:103C20001ED202F1FF325FEA1C2040EBC25038BFC7
:103C300070471CF07F0F4FEA400C18BFBCF17F4F5C
:103C400038BF7047C3F12003994008BF20F001003E
:103C5000BCF17F4F38BF7047A0F1C04000F01DBAE3
:103C60004FEA3C00000A40EBC25028BF1CF0FF0F97
:103C70004FEA400CE6D018BFBCF17F4F38BF704709
:103C8000EAE79CEA026F05D010EA5C0F08BF00F07B
:103C90000040704710B500F0BAF900BF64FBBE3EAB
:103CA000401058BFC0F14040491058BFC1F14041D9
:103CB0008142EFF3008070474FF47F0C1CEAD01272
:103CC0001EBF1CEAD11392EA0C0F93EA0C0F00F00E
:103CD000858090EA010F48BF42F4807240F4000CE6
:103CE00041F400002CF07F4120F07F4000B581427C
:103CF000A2EB03020FF2081CACEB504EC0F1000027
:103D00009EF800E04FEA4E0E00FB0EFC38BF490063
:103D10004FEA2C1C02F5FA020CFB0EF34FEACE1E02
:103D20004FEA112C4FEAC1210EEB635E42EB2242B7
:103D30000EFB0CFC4FEA1C5300FB03114FEA112C45
:103D40004FEA01310EFB0CFC4FEADC4C00FB0C117E
:103D5000C14228BF09184CEB03335DF804EB10EBAC
:103D6000410143EBC250B2F57C0F38BF704729D5F3
:103D700012F0F00F1CBF00F1C04000F0004070478F
:103D8000008182838485868788898B8C8D8E8F9134
:103D90009293959697999A9C9D9FA0A2A3A5A7A858
:103DA000AAACAEB0B2B3B5B7B9BCBEC0C2C5C7C984
:103DB000CCCED1D4D7D9DCDFE2E6E9ECF0F3F7FAE8
:103DC000FE0000004FEA400C0CF1807CBCF17E4FFD
:103DD00028BF7047B0F1C04000F05FB990EA010F12
:103DE0000CEAD11348BF42F48072624538BF634584
:103DF00007D213F47F0F16D080EA010000F00040D4
:103E0000704710B500F003F9097EFC3E00F005B8DC
:103E100080EA010000F00040704780EA010000F0F5
:103E2000004000F03AB912F47F0F04BF0248704717
:103E300080EA010000F031B90000C07FC10DD1F16E
:103E40009E0206DB4FEA002343F0004323FA02F010
:103E50007047004207D54FEA4001B1F1FE4F02D250
:103E60004FF00000704710B500F0D1F8499224805F
:103E7000002070476FEA200070470000B0FA80F31E
:103E800010FA03F2C3F19D030AD0D90501EB122009
:103E9000530638BF704700F1010008BF20F0010051
:103EA0007047000050EA010C00F113801CF5000F70
:103EB00058BFBCF5000F01D48842704707D710F5F2
:103EC000000F58BF11F5000F15D488427047894282
:103ED00070471CF5000F04D5BCF5000FF7D58142E3
:103EE00070474FF0807C1CEB400F38BF1CEB410F3C
:103EF00001D28142704710B500F089F89224490040
:103F00004FF000504FF08051FFF7CABE4FF47F0CC6
:103F10001CEAD0121EBF1CEAD11392EA0C0F93EADE
:103F20000C0F00F0478090EA010F48BF42F4807206
:103F30004FF0004C4CEA00204CEA012102EB030256
:103F4000A0FB0113A2F50002002918BF43F00103F2
:103F50005B0028BF4FEA330342EB22425FEA132C97
:103F60004CEBC2502EBFBCEB436FB2F57C0F7047D9
:103F70004FEA036CBCF1004F08BF20F00100B2F51E
:103F80007C0F38BF70470BD582F0FF0212F5803FDF
:103F9000C8BF704700F1C040D8BF00F00040704774
:103FA00000F5000C5FEA4C0C48BF7047B0F1C04010
:103FB00000F073B890EA010F0CEAD11348BF42F445
:103FC0008072624538BF634504D280EA010000F088
:103FD0000040704710B500F01AF800BF8900013E9C
:103FE00000F007B800F009B85FEA410C5FEA1C6C0A
:103FF00008D080EA010000F050B85FEA400C5FEAA8
:104000001C6CF6D14FF00040A0F5800070470EF117
:10401000020E2EF0030E5EF8044B244204D44FEA45
:104020004102B2F17F4F11D84FEA4003B3F17F4F05
:104030000CD80ED14FEAD07CB2F17F4F0CEB4C0C78
:104040000CF1020C08BF4CEBD17C04E04FF0080CE3
:1040500001E04FEAD17C0CEB4C0324FA03F404F0AA
:104060000704B4F1040C06D20EEB840CBDE810403A
:104070004CF0010C6047DFE80CF0070802024FF03B
:104080000040A0F5800010BD0846420018BFD2F1E4
:10409000807288BF00F0004010BDFF2141EAD0507F
:1040A000C005704751EA000C00F113801CF5000FA9
:1040B00058BFBCF5000F01D48142704707D711F5F6
:1040C000000F58BF10F5000F15D481427047894288
:1040D00070471CF5000F04D5BCF5000FF7D58842DA
:1040E00070474FF0807C1CEB410F38BF1CEB400F3A
:1040F00001D28842704780EA010081EA000180EA2B
:104100000100FFF7F8BE000090EA010F48BF81F000
:1041100000413FF56AAD421A04D882F00042A0EB9C
:10412000020011444FEAD0524FF07F4C1CEA410F7D
:10413000A2EBD15318BF9CEA026F4AD04FF0004C5B
:104140004CEA00204CEA012121FA03FCB0EB0C0CF4
:104150000FD412F0FE0F36D05FEA4C001DD50012CE
:1041600040EBC25038BF70471CF03F0F18BF70477C
:104170000BE0A2F101025FEA1C2040EBC25038BF05
:1041800070471CF07F0F18BF7047C3F120039940A0
:1041900014BF401E20F00100704780084FEA122330
:1041A00008BF7047B0FA80FCA2EB0C02CCF1280CDF
:1041B00060FA0CF093EA122F04BF00EBC250704774
:1041C0004FEAC3707047130A5FEADC1008BF7047FC
:1041D000F6E79CEA026F04D010EA5C0F08BF0020EB
:1041E000704710B5FFF713FF40DFF63E81F0004047
:1041F000704702030405060708090A0B0C0D0E0F91
:104200001010010202030405060708090A0B0C0D31
:104210000E0F10100102000000000000000001025B
:10422000030406070809000000000102030400005F
:104230005042000800000020BC00000028010008D7
:104240000C430008BC000020CC0A00004401000818
:10425000000000000000000000000000000000005E
:10426000000000000000000000000000000000004E
:10427000000000000000000000000000000000003E
:10428000100000000100000000127A000000000091
:10429000000000000000803F0000803F0000803FE1
:1042A0000000803F9A99193F3333B33F3333B33F14
:1042B00001000000010000000100000005000000F6
:1042C0000500000064000000000000000000000085
:1042D00000000000000000000000000000000000DE
:1042E00000000000000000010000000000050000C8
:1042F00000000000000000000000000000000000BE
:0C43000000000000000000000000FF00B2
:04000005080000ED02
:00000001FF
